:1000000012C02AC029C028C0C7C026C025C024C02D
:1000100023C022C021C020C01FC01FC05EC01CC0A2
:100020001BC01AC019C011241FBECFEDCDBF10E0F8
:10003000A0E6B0E0E0E7F3E002C005900D92A03743
:10004000B107D9F710E0A0E7B0E001C01D92A637D4
:10005000B107E1F75DD18AC1D3CF1F920F920FB6DE
:100060000F9211242F933F938F939F93EF93FF93BE
:1000700032B32091610081E090E0022E01C0880F30
:100080000A94EAF78095832382BB822F8F5F8630A4
:1000900008F401C082E08093610030916100E32F99
:1000A000F0E0E059FF4FE081F0E0EE59FF4F808132
:1000B00088BB22B381E090E001C0880F3A95EAF74F
:1000C000282B22BBFF91EF919F918F913F912F9110
:1000D0000F900FBE0F901F9018951F920F920FB6A2
:1000E0000F9211248F939F938091700081114DC0C6
:1000F00080B3982F9370933041F0909171009436B3
:1001000020F49F5F9093710002C010927100909153
:1001100071009436D0F180FD1EC0809173008F5F16
:1001200080937300909172008A3018F0923018F426
:1001300004C0843048F0923039F4109273008091FA
:1001400072008F5F80937200809172008330D0F0D4
:100150001092720017C081FD15C0809175008F5FED
:100160008A3018F48093750007C010927500809152
:1001700074008F5F8093740080917400863010F05B
:100180001092750081E0809370009F918F910F9085
:100190000FBE0F901F9018951F920F920FB60F92DF
:1001A00011248F9381E0809360008F910F900FBE98
:1001B0000F901F9018954DC0CF93DF93FC01D28113
:1001C000D295D07F8381D82BC081C295C07F818199
:1001D000C82B80ED51D080E061D080E05FD08D2FC2
:1001E0005DD08C2F5BD052D081E0DF91CF9108950C
:1001F000EF92FF921F93CF93DF931F92CDB7DD272E
:100200007C0180ED39D081E049D081ED2BD064D0E4
:10021000182F60D089833AD08981982F92959F704A
:10022000F70190838F708183812F82958F708283F5
:100230001F7013830F90DF91CF911F91FF90EF906C
:10024000089500C000C000C000C000C000C0000091
:100250000895D098D198D898D9980895D09AF1DF78
:100260001DD00895D19AEDDFD098EBDFD198E9DF6A
:10027000D09AE7DF13D00895082ED09AE2DF802DC0
:100280000DD0882311F002D0F8CF0895D19AD09ADA
:10029000D8DFD198D6DFD098D4DF08950894881F8E
:1002A00001C0880F59F0D19A18F40000D09802C00C
:1002B000D09A00C0C6DFD198C4DFF3CFD19AD098CE
:1002C000C0DFD198C99BFECF8827C89981E0B9DFEC
:1002D00099270895882701C081E071E0D19AD098CC
:1002E000B0DFD198AEDFC99BFECF8894C89908943F
:1002F000771FA0F7D19A813011F0D09801C0D09A21
:10030000A0DFD198C99BFECF9CDF872F9927089546
:100310008FEF87BB18BA8CEF81BB83E082BB82E092
:1003200080BF84E083BF8DE086BF81E08CBF8CE01E
:100330008EBD8FE08BBD82E48ABD80E888B985E4FC
:1003400089BF39DF789480916000882329F082E7A3
:1003500090E04EDF1092600080917000882399F346
:1003600082E790E029DF10927000EDCFF894FFCF84
:10037000010240792430191202780010420F0D005A
:00000001FF
