:1000000012C02AC029C028C06DC026C025C024C087
:1000100023C022C021C020C01FC01FC072C01CC08E
:100020001BC01AC019C011241FBECFEDCDBF10E0F8
:10003000A0E6B0E0EAE7F3E002C005900D92AE362C
:10004000B107D9F710E0AEE6B0E001C01D92A337CA
:10005000B107E1F760D18FC1D3CF1F920F920FB6D6
:100060000F9211242F933F938F939F93EF93FF93BE
:1000700022B33091600081E090E0032E01C0880F30
:100080000A94EAF78095822382BB809160008F5F9B
:100090008093600080916000863018F082E0809349
:1000A0006000E0916000F0E0E359FF4FE081F0E094
:1000B000ED59FF4F808188BB22B33091600081E011
:1000C00090E001C0880F3A95EAF7282B22BBFF91F8
:1000D000EF919F918F913F912F910F900FBE0F90B5
:1000E0001F9018951F920F920FB60F9211248F93A5
:1000F00081E0809362008F910F900FBE0F901F9050
:1001000018951F920F920FB60F9211242F938F9371
:100110009F9390B380916E00811148C090FD23C0E1
:100120008091610080FF1FC0809170008F5F80937D
:10013000700020916F008A3018F0223018F404C04B
:10014000843048F0223039F41092700080916F00B2
:100150008F5F80936F0080916F00833008F41EC022
:1001600010926F001BC091FD1BC08091610081FF48
:1001700017C0809172008F5F8A3018F480937200EC
:1001800007C010927200809171008F5F80937100A0
:1001900080917100863010F01092710081E001C0F2
:1001A00080E093709093610080936E009F918F9197
:1001B0002F910F900FBE0F901F9018954DC0CF93A9
:1001C000DF93FC01D281D295D07F8381D82BC0816F
:1001D000C295C07F8181C82B80ED51D080E061D075
:1001E00080E05FD08D2F5DD08C2F5BD052D081E02E
:1001F000DF91CF910895EF92FF921F93CF93DF93FA
:100200001F92CDB7DD277C0180ED39D080E049D049
:1002100081ED2BD064D0182F60D089833AD08981AA
:10022000982F92959F70F70190838F708183812F13
:1002300082958F7082831F7013830F90DF91CF910F
:100240001F91FF90EF90089505C000C000C000C04E
:1002500000C000C000000895D098D198D898D998CF
:100260000895D09AF1DF1DD00895D19AEDDFD0988E
:10027000EBDFD198E9DFD09AE7DF13D00895082E9D
:10028000D09AE2DF802D0DD0882311F002D0F8CF74
:100290000895D19AD09AD8DFD198D6DFD098D4DFFC
:1002A00008950894881F01C0880F59F0D19A18F456
:1002B0000000D09802C0D09A00C0C6DFD198C4DF39
:1002C000F3CFD19AD098C0DFD198C99BFECF8827B1
:1002D000C89981E0B9DF99270895882701C081E096
:1002E00071E0D19AD098B0DFD198AEDFC99BFECF34
:1002F0008894C8990894771FA0F7D19A813011F09B
:10030000D09801C0D09AA0DFD198C99BFECF9CDFC6
:10031000872F992708958FEF87BB18BA8CEF81BB81
:1003200083E082BB82E080BF84E083BF85E086BF3C
:1003300081E08CBF8CE08EBD1BBC87E28ABD80E86B
:1003400088B985E489BF3ADF8FE690E054DF78947E
:1003500080916200882329F0109262008FE690E07D
:100360004ADF80916E00882399F38FE690E027DFC3
:0A03700010926E00EDCFF894FFCF5D
:0E037A000203014079243019120278001000AD
:00000001FF
