:1000000012C02AC029C028C0C9C026C025C024C02B
:1000100023C022C021C020C01FC01FC05EC01CC0A2
:100020001BC01AC019C011241FBECFEDCDBF10E0F8
:10003000A0E6B0E0E4E7F3E002C005900D92AC3634
:10004000B107D9F710E0ACE6B0E001C01D92A237CD
:10005000B107E1F75FD18CC1D3CF1F920F920FB6DA
:100060000F9211242F933F938F939F93EF93FF93BE
:1000700032B32091610081E090E0022E01C0880F30
:100080000A94EAF78095832382BB822F8F5F8630A4
:1000900008F401C082E08093610030916100E32F99
:1000A000F0E0E459FF4FE081F0E0EE59FF4F80812E
:1000B00088BB22B381E090E001C0880F3A95EAF74F
:1000C000282B22BBFF91EF919F918F913F912F9110
:1000D0000F900FBE0F901F9018951F920F920FB6A2
:1000E0000F9211248F939F9380916D0081114FC0C7
:1000F00080B3982F9370933051F090916C009436A8
:1001000030F490916C009F5F90936C0002C010924D
:100110006C0090916C009436D0F180FD1EC08091EF
:100120006F008F5F80936F0090916E008A3018F09F
:10013000923018F404C0843048F0923039F41092B0
:100140006F0080916E008F5F80936E0080916E00D3
:100150008330D0F010926E0017C081FD15C08091E1
:1001600071008F5F8A3018F48093710007C010927D
:100170007100809170008F5F80937000809170009B
:10018000863010F01092700081E080936D009F9196
:100190008F910F900FBE0F901F9018951F920F9286
:1001A0000FB60F9211248F9381E0809360008F919E
:1001B0000F900FBE0F901F9018954DC0CF93DF93F7
:1001C000FC01D281D295D07F8381D82BC081C2958A
:1001D000C07F8181C82B80ED51D080E061D080E06C
:1001E0005FD08D2F5DD08C2F5BD052D081E0DF911E
:1001F000CF910895EF92FF921F93CF93DF931F92B9
:10020000CDB7DD277C0180ED39D081E049D081ED8B
:100210002BD064D0182F60D089833AD08981982F51
:1002200092959F70F70190838F708183812F8295C3
:100230008F7082831F7013830F90DF91CF911F9176
:10024000FF90EF90089500C000C000C000C000C043
:1002500000C000000895D098D198D898D9980895F2
:10026000D09AF1DF1DD00895D19AEDDFD098EBDF61
:10027000D198E9DFD09AE7DF13D00895082ED09AFD
:10028000E2DF802D0DD0882311F002D0F8CF089541
:10029000D19AD09AD8DFD198D6DFD098D4DF0895FC
:1002A0000894881F01C0880F59F0D19A18F40000F3
:1002B000D09802C0D09A00C0C6DFD198C4DFF3CF77
:1002C000D19AD098C0DFD198C99BFECF8827C89912
:1002D00081E0B9DF99270895882701C081E071E0A6
:1002E000D19AD098B0DFD198AEDFC99BFECF889469
:1002F000C8990894771FA0F7D19A813011F0D0984F
:1003000001C0D09AA0DFD198C99BFECF9CDF872F78
:10031000992708958FEF87BB18BA8CEF81BB83E0D4
:1003200082BB82E080BF84E083BF8DE086BF81E036
:100330008CBF8CE08EBD8FE08BBD82E48ABD80E8EF
:1003400088B985E489BF39DF78948091600088237B
:1003500029F08EE690E04EDF1092600080916D00F3
:10036000882399F38EE690E029DF10926D00EDCF9F
:04037000F894FFCF2F
:0C037400010240792430191202780010B8
:00000001FF
