:1000000012C02AC029C028C0FAC026C025C024C0FA
:1000100023C022C021C020C083C01FC01DC01CC07F
:100020001BC01AC019C011241FBECFEDCDBF10E0F8
:10003000A0E6B0E0EAEBF3E002C005900D92AC362A
:10004000B107D9F710E0ACE6B0E001C01D92A137CE
:10005000B107E1F746D0AFC1D3CF1F920F920FB6D1
:100060000F9211242F933F934F938F939F93EF936E
:10007000FF9332B320916A0081E090E0022E02C02B
:10008000880F991F0A94E2F78095832382BB2F5F24
:1000900020936A00263018F082E080936A00209155
:1000A0006A0030E0F901E559FF4FE081F0E0E05AE5
:1000B000FF4F808188BB42B381E090E002C0880F8F
:1000C000991F2A95E2F7482B42BBFF91EF919F9130
:1000D0008F914F913F912F910F900FBE0F901F90D6
:1000E00018958FEF87BB18BA8CEF81BB83E082BB7A
:1000F00082E080BF84E083BF85E086BF1CBE88E0CD
:100100008FBD81E08EBD87E28BBD80E18ABD19BCC9
:1001100018BC80E888B981E689BFE1D07894FFCF28
:100120001F920F920FB60F9211240F931F932F93CC
:100130003F934F935F936F937F938F939F93AF936F
:10014000BF93EF93FF9310B31370012F10FD25C0E1
:1001500080916B0080FF21C090916E009F5F909313
:100160006E009A3020F080916D00823030F0943033
:1001700058F080916D00823039F410926E008091B9
:100180006D008F5F80936D0080916D00833010F063
:1001900010926D008DE690E060D001FD1BC0809153
:1001A0006B0081FF17C0809170008F5F809370009B
:1001B0008A3038F01092700080916F008F5F8093CA
:1001C0006F0080916F00863010F010926F008DE606
:1001D00090E043D010936B00FF91EF91BF91AF91EE
:1001E0009F918F917F916F915F914F913F912F914F
:1001F0001F910F910F900FBE0F901F9018951F9297
:100200000F920FB60F9211242F933F934F935F934A
:100210006F937F938F939F93AF93BF93EF93FF93CE
:1002200080916C008F5F80936C008B3028F010926F
:100230006C008DE690E02FD0FF91EF91BF91AF91D0
:100240009F918F917F916F915F914F913F912F91EE
:100250000F900FBE0F901F9018950F931F93FC01E6
:1002600002810295007F8381082B10811295107FF7
:100270008181182B80ED53D080E063D080E061D085
:10028000802F5FD0812F5DD080E05BD052D081E0A5
:100290001F910F910895EF92FF920F931F937C018E
:1002A00080ED3DD080E04DD044D081ED2ED067D0A0
:1002B00066D0082F62D0182F3CD0812F82958F7086
:1002C000F70180831F701183802F82958F70828346
:1002D0000F7003831F910F91FF90EF9008950CD042
:1002E00083E08A95F1F7089500C000C000C000C007
:1002F00000C000C000000895D098D198D898D9982F
:100300000895D09AF1DF1DD00895D19AEDDFD098ED
:10031000EBDFD198E9DFD09AE7DF13D00895082EFC
:10032000D09AE2DF802D0DD0882311F002D0F8CFD3
:100330000895D19AD09AD8DFD198D6DFD098D4DF5B
:1003400008950894881F01C0880F59F0D19A18F4B5
:100350000000D09802C0D09A00C0C6DFD198C4DF98
:10036000F3CFD19AD098C0DFD198C99BFECF882710
:10037000C89981E0B9DF99270895882701C081E0F5
:1003800071E0D19AD098B0DFD198AEDFC99BFECF93
:100390008894C8990894771FA0F7D19A813011F0FA
:1003A000D09801C0D09AA0DFD198C99BFECF9CDF26
:0A03B000872F99270895F894FFCFD6
:0C03BA0040792430191202780010020370
:00000001FF
