:1000000012C02AC029C028C0B5C026C025C024C03F
:1000100023C022C021C020C01FC01FC01DC01CC0E3
:100020001BC01AC019C011241FBECFEDCDBF10E0F8
:10003000A0E6B0E0E8E4F3E002C005900D92AE3631
:10004000B107D9F710E0AEE6B0E001C01D92A237CB
:10005000B107E1F79ED076C1D3CF1F920F920FB6B2
:100060000F9211242F933F934F938F939F93EF936E
:10007000FF9332B320916C0081E090E0022E02C029
:10008000880F991F0A94E2F78095832382BB2F5F24
:1000900020936C00263018F082E080936C00209151
:1000A0006C0030E0F901E459FF4FE081F0E0EE59D7
:1000B000FF4F808188BB42B381E090E002C0880F8F
:1000C000991F2A95E2F7482B42BBFF91EF919F9130
:1000D0008F914F913F912F910F900FBE0F901F90D6
:1000E000189520B32370922F20FD23C080916100CA
:1000F00080FF1FC090916F009F5F90936F009A30B8
:1001000020F080916E00823030F0943058F0809171
:100110006E00823039F410926F0080916E008F5F14
:1001200080936E0080916E00833000F110926E001B
:100130001DC091FD19C08091610081FF15C08091A3
:1001400071008F5F809371008A3038F010927100D7
:10015000809170008F5F8093700080917000863076
:1001600028F01092700002C080E001C081E020936E
:10017000610008951F920F920FB60F9211248F9372
:1001800081E0809360008F910F900FBE0F901F90C1
:1001900018958FEF87BB18BA8CEF81BB83E082BBC9
:1001A00082E080BF94E093BF85E086BF1CBE88E0FC
:1001B0008FBD9EBD8FE08BBD82E48ABD80E888B98B
:1001C00081E489BF53D0789480916000882329F01E
:1001D000109260008EE690E025D083DF8823A1F3A3
:1001E0008EE690E001D0F0CF0F931F93FC010281C7
:1001F0000295007F8381082B10811295107F8181E9
:10020000182B80ED53D080E063D080E061D0802F48
:100210005FD0812F5DD080E05BD052D081E01F9114
:100220000F910895EF92FF920F931F937C0180ED41
:100230003DD080E04DD044D081ED2ED067D066D047
:10024000082F62D0182F3CD0812F82958F70F70134
:1002500080831F701183802F82958F7082830F702F
:1002600003831F910F91FF90EF9008950CD083E0CE
:100270008A95F1F7089500C000C000C000C000C01A
:1002800000C000000895D098D198D898D9980895C2
:10029000D09AF1DF1DD00895D19AEDDFD098EBDF31
:1002A000D198E9DFD09AE7DF13D00895082ED09ACD
:1002B000E2DF802D0DD0882311F002D0F8CF089511
:1002C000D19AD09AD8DFD198D6DFD098D4DF0895CC
:1002D0000894881F01C0880F59F0D19A18F40000C3
:1002E000D09802C0D09A00C0C6DFD198C4DFF3CF47
:1002F000D19AD098C0DFD198C99BFECF8827C899E2
:1003000081E0B9DF99270895882701C081E071E075
:10031000D19AD098B0DFD198AEDFC99BFECF889438
:10032000C8990894771FA0F7D19A813011F0D0981E
:1003300001C0D09AA0DFD198C99BFECF9CDF872F48
:0803400099270895F894FFCFFE
:0E0348000103407924301912027800100200DF
:00000001FF
