:1000000012C02AC029C028C0C5C026C025C024C02F
:1000100023C022C021C020C01FC01FC062C01CC09E
:100020001BC01AC019C011241FBECFEDCDBF10E0F8
:10003000A0E6B0E0EEE5F3E002C005900D92A03737
:10004000B107D9F710E0A0E7B0E001C01D92A637D4
:10005000B107E1F7AED081C1D3CF1F920F920FB697
:100060000F9211242F933F934F938F939F93EF936E
:10007000FF9332B320916E0081E090E0022E02C027
:10008000880F991F0A94E2F78095832382BB2F5F24
:1000900020936E00263018F082E080936E0020914D
:1000A0006E0030E0F901E059FF4FE081F0E0ED59DA
:1000B000FF4F808188BB42B381E090E002C0880F8F
:1000C000991F2A95E2F7482B42BBFF91EF919F9130
:1000D0008F914F913F912F910F900FBE0F901F90D6
:1000E00018951F920F920FB60F9211248F939F9322
:1000F00080917000882309F046C090B393709330CC
:1001000041F080917100843620F48F5F80937100FC
:1001100002C010927100809171008436A0F190FDB0
:100120001BC0809173008F5F809373009091720069
:10013000923010F48A3020F4923039F4843028F070
:10014000109273009F5F90937200809172008330D1
:10015000B8F01092720014C0809175008F5F809388
:1001600075008A3038F010927500809174008F5FAE
:100170008093740080917400863010F010927400A7
:1001800081E0809370009F918F910F900FBE0F9030
:100190001F9018951F920F920FB60F9211248F93F4
:1001A00081E080936D008F910F900FBE0F901F9094
:1001B00018958FEF87BB18BA8CEF81BB83E082BBA9
:1001C00082E080BF84E083BF8DE086BF81E08CBF8A
:1001D0008CE08EBD8FE08BBD82E48ABD80E888B95B
:1001E00085E489BF51D0789480916D00882329F0EF
:1001F00082E790E00CD010926D008091700088230F
:1002000099F382E790E025D010927000EDCFEF9245
:10021000FF920F931F937C0180ED53D081E063D058
:1002200081ED45D07ED0082F7AD0182F54D0812F61
:1002300082958F70F70180831F701183802F8295C4
:100240008F7082830F7003831F910F91FF90EF9047
:1002500008950F931F93FC0102810295007F838113
:10026000082B10811295107F8181182B80ED29D0E9
:1002700080E039D080E037D0802F35D0812F33D047
:100280002AD01F910F91089509D0089500C000C091
:1002900000C000C000C000C000000895D098D198F0
:1002A000D898D9980895D09AF1DF1DD00895D19AA1
:1002B000EDDFD098EBDFD198E9DFD09AE7DF13D0FC
:1002C0000895082ED09AE2DF802D0DD0882311F0FA
:1002D00002D0F8CF0895D19AD09AD8DFD198D6DF3E
:1002E000D098D4DF08950894881F01C0880F59F072
:1002F000D19A18F40000D09802C0D09A00C0C6DF8E
:10030000D198C4DFF3CFD19AD098C0DFD198C99BE0
:10031000FECF8827C89981E0B9DF992708958827FB
:1003200001C081E071E0D19AD098B0DFD198AEDF02
:10033000C99BFECF8894C8990894771FA0F7D19ADB
:10034000813011F0D09801C0D09AA0DFD198C99B1C
:0E035000FECF9CDF872F99270895F894FFCFEA
:10035E000D420F407924301912027800100102006C
:00000001FF
