:1000000012C02AC029C028C0CBC026C025C024C029
:1000100023C022C021C020C01FC01FC062C01CC09E
:100020001BC01AC019C011241FBECFEDCDBF10E0F8
:10003000A0E6B0E0ECEAF3E002C005900D92A43730
:10004000B107D9F710E0A4E7B0E001C01D92AB37CB
:10005000B107E1F7B4D0A8C1D3CF1F920F920FB66A
:100060000F9211242F933F934F938F939F93EF936E
:10007000FF9332B32091720081E090E0022E02C023
:10008000880F991F0A94E2F78095832382BB2F5F24
:1000900020937200263018F082E080937200209145
:1000A000720030E0F901EB58FF4FE081F0E0ED59CC
:1000B000FF4F808188BB42B381E090E002C0880F8F
:1000C000991F2A95E2F7482B42BBFF91EF919F9130
:1000D0008F914F913F912F910F900FBE0F901F90D6
:1000E00018951F920F920FB60F9211242F938F9392
:1000F0009F9380917500882309F04AC020B3237034
:10010000233061F090917600943640F48091740031
:10011000882321F49F5F9093760002C010927600AE
:10012000809176008436A0F120FD1BC0809178007C
:100130008F5F8093780090917700923010F48A302E
:1001400020F4923039F4843028F0109278009F5FC8
:1001500090937700809177008330B8F01092770009
:1001600014C080917A008F5F80937A008A3038F0D3
:1001700010927A00809179008F5F8093790080914E
:100180007900863010F01092790081E0809375003C
:100190009F918F912F910F900FBE0F901F901895E8
:1001A0001F920F920FB60F9211248F9381E08093CC
:1001B00071008F910F900FBE0F901F9018951F9395
:1001C0008FEF87BB18BA8CEF81BB83E082BB82E0E4
:1001D00080BF84E083BF8DE086BF81E08CBF8CE070
:1001E0008EBD8FE08BBD82E48ABD80E888B985E44E
:1001F00089BF71D0789418E080917100882399F0BC
:1002000087E790E01CD08093740010927100809179
:100210007400882341F010937700109378001093B6
:10022000790010937A0080917500882329F387E77D
:1002300090E02CD08093740010927500DDCFFF9277
:100240000F931F93CF93DF93EC0180ED53D0F82EE3
:100250008823A9F481E06ED081ED50D089D0082F99
:1002600085D0182F5FD0812F82958F7088831F7063
:100270001983802F82958F708A830F700B838F2D47
:10028000DF91CF911F910F91FF900895FF920F93EF
:100290001F93CF93DF93EC0180ED2CD0F82E8823B1
:1002A00099F40A810295007F8B81082B18811295A1
:1002B000107F8981182B80E03DD080E03BD0802FDB
:1002C00039D0812F37D02ED08F2DDF91CF911F9134
:1002D0000F91FF90089509D0089500C000C000C09C
:1002E00000C000C000C000000895D098D198D898F0
:1002F000D9980895D09AF1DF1DD00895D19AEDDFF5
:10030000D098EBDFD198E9DFD09AE7DF13D00895DA
:10031000082ED09AE2DF802D0DD0882311F002D074
:10032000F8CF0895D19AD09AD8DFD198D6DFD09857
:10033000D4DF08950894881F01C0880F59F0D19A1E
:1003400018F40000D09802C0D09A00C0C6DFD1983F
:10035000C4DFF3CFD19AD098C0DFD198C99BFECF2C
:100360008827C89981E0B9DF99270895882701C0B7
:1003700081E071E0D19AD098B0DFD198AEDFC99B0F
:10038000FECF8894C8990894771FA0F7D19A81303E
:1003900011F0D09801C0D09AA0DFD198C99BFECFB0
:0C03A0009CDF872F99270895F894FFCF69
:1003AC000D420F407924301912027800100001021E
:0403BC000301020037
:00000001FF
